{
  "_format": "hh-sol-artifact-1",
  "contractName": "CoreLoanPlatform",
  "sourceName": "contracts/CoreLoanPlatform.sol",
  "abi": [
    {
      "inputs": [
        {
          "internalType": "address",
          "name": "_USD",
          "type": "address"
        },
        {
          "internalType": "address",
          "name": "_BTC",
          "type": "address"
        }
      ],
      "stateMutability": "nonpayable",
      "type": "constructor"
    },
    {
      "inputs": [
        {
          "internalType": "address",
          "name": "target",
          "type": "address"
        }
      ],
      "name": "AddressEmptyCode",
      "type": "error"
    },
    {
      "inputs": [
        {
          "internalType": "address",
          "name": "account",
          "type": "address"
        }
      ],
      "name": "AddressInsufficientBalance",
      "type": "error"
    },
    {
      "inputs": [],
      "name": "FailedInnerCall",
      "type": "error"
    },
    {
      "inputs": [
        {
          "internalType": "address",
          "name": "owner",
          "type": "address"
        }
      ],
      "name": "OwnableInvalidOwner",
      "type": "error"
    },
    {
      "inputs": [
        {
          "internalType": "address",
          "name": "account",
          "type": "address"
        }
      ],
      "name": "OwnableUnauthorizedAccount",
      "type": "error"
    },
    {
      "inputs": [
        {
          "internalType": "address",
          "name": "token",
          "type": "address"
        }
      ],
      "name": "SafeERC20FailedOperation",
      "type": "error"
    },
    {
      "anonymous": false,
      "inputs": [
        {
          "indexed": true,
          "internalType": "address",
          "name": "lender",
          "type": "address"
        },
        {
          "indexed": false,
          "internalType": "uint256",
          "name": "amount",
          "type": "uint256"
        }
      ],
      "name": "BTCDeposited",
      "type": "event"
    },
    {
      "anonymous": false,
      "inputs": [
        {
          "indexed": true,
          "internalType": "address",
          "name": "lender",
          "type": "address"
        },
        {
          "indexed": false,
          "internalType": "uint256",
          "name": "amount",
          "type": "uint256"
        }
      ],
      "name": "BTCWithdrawn",
      "type": "event"
    },
    {
      "anonymous": false,
      "inputs": [
        {
          "indexed": true,
          "internalType": "address",
          "name": "user",
          "type": "address"
        },
        {
          "indexed": false,
          "internalType": "uint256",
          "name": "amount",
          "type": "uint256"
        }
      ],
      "name": "CollateralDeposited",
      "type": "event"
    },
    {
      "anonymous": false,
      "inputs": [
        {
          "indexed": true,
          "internalType": "address",
          "name": "user",
          "type": "address"
        },
        {
          "indexed": false,
          "internalType": "uint256",
          "name": "amount",
          "type": "uint256"
        }
      ],
      "name": "CollateralWithdrawn",
      "type": "event"
    },
    {
      "anonymous": false,
      "inputs": [
        {
          "indexed": true,
          "internalType": "address",
          "name": "borrower",
          "type": "address"
        },
        {
          "indexed": false,
          "internalType": "uint256",
          "name": "amount",
          "type": "uint256"
        },
        {
          "indexed": false,
          "internalType": "uint256",
          "name": "interest",
          "type": "uint256"
        }
      ],
      "name": "LoanRepaid",
      "type": "event"
    },
    {
      "anonymous": false,
      "inputs": [
        {
          "indexed": true,
          "internalType": "address",
          "name": "borrower",
          "type": "address"
        },
        {
          "indexed": false,
          "internalType": "uint256",
          "name": "amount",
          "type": "uint256"
        },
        {
          "indexed": false,
          "internalType": "uint256",
          "name": "collateral",
          "type": "uint256"
        }
      ],
      "name": "LoanTaken",
      "type": "event"
    },
    {
      "anonymous": false,
      "inputs": [
        {
          "indexed": true,
          "internalType": "address",
          "name": "previousOwner",
          "type": "address"
        },
        {
          "indexed": true,
          "internalType": "address",
          "name": "newOwner",
          "type": "address"
        }
      ],
      "name": "OwnershipTransferred",
      "type": "event"
    },
    {
      "inputs": [],
      "name": "BORROWABLE_RATIO",
      "outputs": [
        {
          "internalType": "uint256",
          "name": "",
          "type": "uint256"
        }
      ],
      "stateMutability": "view",
      "type": "function"
    },
    {
      "inputs": [],
      "name": "BTC",
      "outputs": [
        {
          "internalType": "contract IERC20",
          "name": "",
          "type": "address"
        }
      ],
      "stateMutability": "view",
      "type": "function"
    },
    {
      "inputs": [],
      "name": "COLLATERAL_RATIO",
      "outputs": [
        {
          "internalType": "uint256",
          "name": "",
          "type": "uint256"
        }
      ],
      "stateMutability": "view",
      "type": "function"
    },
    {
      "inputs": [],
      "name": "INTEREST_RATE",
      "outputs": [
        {
          "internalType": "uint256",
          "name": "",
          "type": "uint256"
        }
      ],
      "stateMutability": "view",
      "type": "function"
    },
    {
      "inputs": [],
      "name": "LOAN_DURATION",
      "outputs": [
        {
          "internalType": "uint256",
          "name": "",
          "type": "uint256"
        }
      ],
      "stateMutability": "view",
      "type": "function"
    },
    {
      "inputs": [],
      "name": "USD",
      "outputs": [
        {
          "internalType": "contract IERC20",
          "name": "",
          "type": "address"
        }
      ],
      "stateMutability": "view",
      "type": "function"
    },
    {
      "inputs": [
        {
          "internalType": "uint256",
          "name": "amount",
          "type": "uint256"
        }
      ],
      "name": "borrowBTC",
      "outputs": [],
      "stateMutability": "nonpayable",
      "type": "function"
    },
    {
      "inputs": [
        {
          "internalType": "address",
          "name": "user",
          "type": "address"
        }
      ],
      "name": "calculateInterest",
      "outputs": [
        {
          "internalType": "uint256",
          "name": "",
          "type": "uint256"
        }
      ],
      "stateMutability": "view",
      "type": "function"
    },
    {
      "inputs": [
        {
          "internalType": "uint256",
          "name": "amount",
          "type": "uint256"
        }
      ],
      "name": "depositBTC",
      "outputs": [],
      "stateMutability": "nonpayable",
      "type": "function"
    },
    {
      "inputs": [
        {
          "internalType": "uint256",
          "name": "amount",
          "type": "uint256"
        }
      ],
      "name": "depositCollateral",
      "outputs": [],
      "stateMutability": "nonpayable",
      "type": "function"
    },
    {
      "inputs": [
        {
          "internalType": "address",
          "name": "user",
          "type": "address"
        }
      ],
      "name": "getBorrowableAmount",
      "outputs": [
        {
          "internalType": "uint256",
          "name": "",
          "type": "uint256"
        }
      ],
      "stateMutability": "view",
      "type": "function"
    },
    {
      "inputs": [],
      "name": "getCurrentApy",
      "outputs": [
        {
          "internalType": "uint256",
          "name": "",
          "type": "uint256"
        }
      ],
      "stateMutability": "pure",
      "type": "function"
    },
    {
      "inputs": [
        {
          "internalType": "address",
          "name": "lender",
          "type": "address"
        }
      ],
      "name": "getLenderBalance",
      "outputs": [
        {
          "internalType": "uint256",
          "name": "",
          "type": "uint256"
        }
      ],
      "stateMutability": "view",
      "type": "function"
    },
    {
      "inputs": [
        {
          "internalType": "address",
          "name": "borrower",
          "type": "address"
        }
      ],
      "name": "getLoanDetails",
      "outputs": [
        {
          "components": [
            {
              "internalType": "uint256",
              "name": "amount",
              "type": "uint256"
            },
            {
              "internalType": "uint256",
              "name": "collateral",
              "type": "uint256"
            },
            {
              "internalType": "uint256",
              "name": "timestamp",
              "type": "uint256"
            },
            {
              "internalType": "bool",
              "name": "active",
              "type": "bool"
            }
          ],
          "internalType": "struct CoreLoanPlatform.Loan",
          "name": "",
          "type": "tuple"
        }
      ],
      "stateMutability": "view",
      "type": "function"
    },
    {
      "inputs": [],
      "name": "getTotalBorrowed",
      "outputs": [
        {
          "internalType": "uint256",
          "name": "",
          "type": "uint256"
        }
      ],
      "stateMutability": "view",
      "type": "function"
    },
    {
      "inputs": [],
      "name": "getTotalStaked",
      "outputs": [
        {
          "internalType": "uint256",
          "name": "",
          "type": "uint256"
        }
      ],
      "stateMutability": "view",
      "type": "function"
    },
    {
      "inputs": [
        {
          "internalType": "address",
          "name": "user",
          "type": "address"
        }
      ],
      "name": "getUserCollateral",
      "outputs": [
        {
          "internalType": "uint256",
          "name": "",
          "type": "uint256"
        }
      ],
      "stateMutability": "view",
      "type": "function"
    },
    {
      "inputs": [
        {
          "internalType": "address",
          "name": "user",
          "type": "address"
        }
      ],
      "name": "getUserStaked",
      "outputs": [
        {
          "internalType": "uint256",
          "name": "",
          "type": "uint256"
        }
      ],
      "stateMutability": "view",
      "type": "function"
    },
    {
      "inputs": [
        {
          "internalType": "address",
          "name": "",
          "type": "address"
        }
      ],
      "name": "lenderBalances",
      "outputs": [
        {
          "internalType": "uint256",
          "name": "",
          "type": "uint256"
        }
      ],
      "stateMutability": "view",
      "type": "function"
    },
    {
      "inputs": [
        {
          "internalType": "address",
          "name": "",
          "type": "address"
        }
      ],
      "name": "loans",
      "outputs": [
        {
          "internalType": "uint256",
          "name": "amount",
          "type": "uint256"
        },
        {
          "internalType": "uint256",
          "name": "collateral",
          "type": "uint256"
        },
        {
          "internalType": "uint256",
          "name": "timestamp",
          "type": "uint256"
        },
        {
          "internalType": "bool",
          "name": "active",
          "type": "bool"
        }
      ],
      "stateMutability": "view",
      "type": "function"
    },
    {
      "inputs": [],
      "name": "owner",
      "outputs": [
        {
          "internalType": "address",
          "name": "",
          "type": "address"
        }
      ],
      "stateMutability": "view",
      "type": "function"
    },
    {
      "inputs": [],
      "name": "renounceOwnership",
      "outputs": [],
      "stateMutability": "nonpayable",
      "type": "function"
    },
    {
      "inputs": [
        {
          "internalType": "address",
          "name": "user",
          "type": "address"
        }
      ],
      "name": "repayLoan",
      "outputs": [],
      "stateMutability": "nonpayable",
      "type": "function"
    },
    {
      "inputs": [
        {
          "internalType": "address",
          "name": "newOwner",
          "type": "address"
        }
      ],
      "name": "transferOwnership",
      "outputs": [],
      "stateMutability": "nonpayable",
      "type": "function"
    },
    {
      "inputs": [
        {
          "internalType": "address",
          "name": "",
          "type": "address"
        }
      ],
      "name": "userCollateral",
      "outputs": [
        {
          "internalType": "uint256",
          "name": "",
          "type": "uint256"
        }
      ],
      "stateMutability": "view",
      "type": "function"
    },
    {
      "inputs": [
        {
          "internalType": "uint256",
          "name": "amount",
          "type": "uint256"
        }
      ],
      "name": "withdrawBTC",
      "outputs": [],
      "stateMutability": "nonpayable",
      "type": "function"
    },
    {
      "inputs": [
        {
          "internalType": "uint256",
          "name": "amount",
          "type": "uint256"
        }
      ],
      "name": "withdrawCollateral",
      "outputs": [],
      "stateMutability": "nonpayable",
      "type": "function"
    }
  ],
  "bytecode": "0x60c0604052600060015560006002553480156200001b57600080fd5b5060405162001748380380620017488339810160408190526200003e9162000166565b33806200006657604051631e4fbdf760e01b8152600060048201526024015b60405180910390fd5b6200007181620000f9565b506001600160a01b038216158015906200009357506001600160a01b03811615155b620000e15760405162461bcd60e51b815260206004820152601760248201527f496e76616c696420746f6b656e2061646472657373657300000000000000000060448201526064016200005d565b6001600160a01b039182166080521660a0526200019e565b600080546001600160a01b038381166001600160a01b0319831681178455604051919092169283917f8be0079c531659141344cd1fd0a4f28419497f9722a3daafe3b4186f6b6457e09190a35050565b80516001600160a01b03811681146200016157600080fd5b919050565b600080604083850312156200017a57600080fd5b620001858362000149565b9150620001956020840162000149565b90509250929050565b60805160a051611553620001f5600039600081816102360152818161059c0152818161098701528181610a4401528181610dad0152610ed30152600081816101f7015281816107e80152610b2f01526115536000f3fe608060405234801561001057600080fd5b50600436106101b95760003560e01c8063a27a944d116100f9578063dac3fc3f11610097578063e8a7da8e11610071578063e8a7da8e146103e6578063f2fde38b1461042e578063f4925de514610441578063f69f1e4a1461044857600080fd5b8063dac3fc3f14610385578063e02a4dfd146103c9578063e11932cf146103d357600080fd5b8063bad4a01f116100d3578063bad4a01f14610372578063bd09085a14610385578063d1a40564146103ae578063d9e69a05146103c157600080fd5b8063a27a944d14610316578063a6b6d79814610336578063b6f7132f1461034957600080fd5b80636112fe2e11610166578063715018a611610140578063715018a61461028e57806373b4086b146102965780638da5cb5b146102f257806390b4588b1461030357600080fd5b80636112fe2e14610260578063691d1eb3146102735780636e35f1241461028657600080fd5b80631bf6c21b116101975780631bf6c21b146101f25780632792949d146102315780635b72a33a1461025857600080fd5b80630307c4a1146101be5780630917e776146101d5578063190ef1e6146101dd575b600080fd5b6002545b6040519081526020015b60405180910390f35b6001546101c2565b6101f06101eb3660046113fc565b610468565b005b6102197f000000000000000000000000000000000000000000000000000000000000000081565b6040516001600160a01b0390911681526020016101cc565b6102197f000000000000000000000000000000000000000000000000000000000000000081565b6101c2600581565b6101f061026e366004611425565b610626565b6101c26102813660046113fc565b61084a565b6101c2605081565b6101f0610882565b6102d06102a43660046113fc565b600360208190526000918252604090912080546001820154600283015492909301549092919060ff1684565b60408051948552602085019390935291830152151560608201526080016101cc565b6000546001600160a01b0316610219565b6101f0610311366004611425565b610896565b6101c26103243660046113fc565b60056020526000908152604090205481565b6101f0610344366004611425565b6109e7565b6101c26103573660046113fc565b6001600160a01b031660009081526004602052604090205490565b6101f0610380366004611425565b610ad2565b6101c26103933660046113fc565b6001600160a01b031660009081526005602052604090205490565b6101f06103bc366004611425565b610bad565b6101c2609681565b6101c262278d0081565b6101c26103e13660046113fc565b610f42565b6103f96103f43660046113fc565b610fc4565b6040516101cc919081518152602080830151908201526040808301519082015260609182015115159181019190915260800190565b6101f061043c3660046113fc565b611041565b60056101c2565b6101c26104563660046113fc565b60046020526000908152604090205481565b6001600160a01b03811660009081526003602081905260409091209081015460ff166104db5760405162461bcd60e51b815260206004820152600e60248201527f4e6f20616374697665206c6f616e00000000000000000000000000000000000060448201526064015b60405180910390fd5b6000620151808260020154426104f19190611454565b6104fb9190611467565b9050601e81111561054e5760405162461bcd60e51b815260206004820152601e60248201527f4c6f616e206475726174696f6e2065786365656465642033302064617973000060448201526064016104d2565b6000618e9482600585600001546105659190611489565b61056f9190611489565b6105799190611467565b9050600081846000015461058d91906114a0565b90506105c46001600160a01b037f000000000000000000000000000000000000000000000000000000000000000016863084611098565b60038401805460ff1916905583546002546105df9190611454565b6002558354604080519182526020820184905233917fc7ce0a35f17b490de2a317e7fecb2cae86b1abffb03800b2f492823521382698910160405180910390a25050505050565b600081116106765760405162461bcd60e51b815260206004820152601d60248201527f416d6f756e74206d7573742062652067726561746572207468616e203000000060448201526064016104d2565b336000908152600460205260409020548111156106d55760405162461bcd60e51b815260206004820152601760248201527f496e73756666696369656e7420636f6c6c61746572616c00000000000000000060448201526064016104d2565b3360009081526003602081905260408220015460ff166106f6576000610707565b336000908152600360205260409020545b905060006064610718609684611489565b6107229190611467565b336000908152600460205260409020549091508190610742908590611454565b10156107b65760405162461bcd60e51b815260206004820152602860248201527f5769746864726177616c20776f756c6420756e646572636f6c6c61746572616c60448201527f697a65206c6f616e00000000000000000000000000000000000000000000000060648201526084016104d2565b33600090815260046020526040812080548592906107d5908490611454565b9091555061080f90506001600160a01b037f000000000000000000000000000000000000000000000000000000000000000016338561111a565b60405183815233907fc30fcfbcaac9e0deffa719714eaa82396ff506a0d0d0eebe170830177288715d906020015b60405180910390a2505050565b6001600160a01b03811660009081526004602052604081205460649061087290605090611489565b61087c9190611467565b92915050565b61088a611150565b6108946000611196565b565b600081116108e65760405162461bcd60e51b815260206004820152601d60248201527f416d6f756e74206d7573742062652067726561746572207468616e203000000060448201526064016104d2565b336000908152600560205260409020548111156109455760405162461bcd60e51b815260206004820152601460248201527f496e73756666696369656e742062616c616e636500000000000000000000000060448201526064016104d2565b3360009081526005602052604081208054839290610964908490611454565b9091555050600154610977908290611454565b6001556109ae6001600160a01b037f000000000000000000000000000000000000000000000000000000000000000016338361111a565b60405181815233907f46cb947848d6e66f42fd865aff4e0b9765da557ed05874db5a3c931ccea58ef1906020015b60405180910390a250565b60008111610a375760405162461bcd60e51b815260206004820152601d60248201527f416d6f756e74206d7573742062652067726561746572207468616e203000000060448201526064016104d2565b610a6c6001600160a01b037f000000000000000000000000000000000000000000000000000000000000000016333084611098565b3360009081526005602052604081208054839290610a8b9084906114a0565b9091555050600154610a9e9082906114a0565b60015560405181815233907ec876900062bf6768530bd9be84c146f5c051f4a50a5bf7fbcdd9ed4c8fb154906020016109dc565b60008111610b225760405162461bcd60e51b815260206004820152601d60248201527f416d6f756e74206d7573742062652067726561746572207468616e203000000060448201526064016104d2565b610b576001600160a01b037f000000000000000000000000000000000000000000000000000000000000000016333084611098565b3360009081526004602052604081208054839290610b769084906114a0565b909155505060405181815233907fd7243f6f8212d5188fd054141cf6ea89cfc0d91facb8c3afe2f88a1358480142906020016109dc565b60008111610bfd5760405162461bcd60e51b815260206004820152601d60248201527f416d6f756e74206d7573742062652067726561746572207468616e203000000060448201526064016104d2565b336000908152600360208190526040909120015460ff1615610c875760405162461bcd60e51b815260206004820152602260248201527f4578697374696e67206c6f616e206d757374206265207265706169642066697260448201527f737400000000000000000000000000000000000000000000000000000000000060648201526084016104d2565b60006064610c96609684611489565b610ca09190611467565b33600090815260046020526040902054909150811115610d025760405162461bcd60e51b815260206004820152601760248201527f496e73756666696369656e7420636f6c6c61746572616c00000000000000000060448201526064016104d2565b33600090815260046020526040812054606490610d2190605090611489565b610d2b9190611467565b905080831115610d7d5760405162461bcd60e51b815260206004820152601b60248201527f426f72726f7720616d6f756e742065786365656473206c696d6974000000000060448201526064016104d2565b6040517f70a0823100000000000000000000000000000000000000000000000000000000815230600482015283907f00000000000000000000000000000000000000000000000000000000000000006001600160a01b0316906370a0823190602401602060405180830381865afa158015610dfc573d6000803e3d6000fd5b505050506040513d601f19601f82011682018060405250810190610e2091906114b3565b1015610e6e5760405162461bcd60e51b815260206004820152601c60248201527f496e73756666696369656e742042544320696e20636f6e74726163740000000060448201526064016104d2565b604080516080810182528481526020808201858152428385019081526001606085018181523360008181526003968790529790972095518655925190850155516002840155519101805460ff1916911515919091179055610efa906001600160a01b037f000000000000000000000000000000000000000000000000000000000000000016908561111a565b82600254610f0891906114a0565b600255604080518481526020810184905233917e6b9bb4766cf5ab74b890df959e4fad0e54b1c3885e49c9541d36253a6e39e6910161083d565b6001600160a01b038116600090815260036020819052604082209081015460ff1615610fbe57600062015180826002015442610f7e9190611454565b610f889190611467565b90506000618e948260058560000154610fa19190611489565b610fab9190611489565b610fb59190611467565b95945050505050565b50919050565b610ff160405180608001604052806000815260200160008152602001600081526020016000151581525090565b506001600160a01b031660009081526003602081815260409283902083516080810185528154815260018201549281019290925260028101549382019390935291015460ff161515606082015290565b611049611150565b6001600160a01b03811661108c576040517f1e4fbdf7000000000000000000000000000000000000000000000000000000008152600060048201526024016104d2565b61109581611196565b50565b6040516001600160a01b0384811660248301528381166044830152606482018390526111149186918216906323b872dd906084015b604051602081830303815290604052915060e01b6020820180517bffffffffffffffffffffffffffffffffffffffffffffffffffffffff83818316178352505050506111fe565b50505050565b6040516001600160a01b0383811660248301526044820183905261114b91859182169063a9059cbb906064016110cd565b505050565b6000546001600160a01b03163314610894576040517f118cdaa70000000000000000000000000000000000000000000000000000000081523360048201526024016104d2565b600080546001600160a01b038381167fffffffffffffffffffffffff0000000000000000000000000000000000000000831681178455604051919092169283917f8be0079c531659141344cd1fd0a4f28419497f9722a3daafe3b4186f6b6457e09190a35050565b60006112136001600160a01b0384168361127a565b9050805160001415801561123857508080602001905181019061123691906114cc565b155b1561114b576040517f5274afe70000000000000000000000000000000000000000000000000000000081526001600160a01b03841660048201526024016104d2565b60606112888383600061128f565b9392505050565b6060814710156112cd576040517fcd7860590000000000000000000000000000000000000000000000000000000081523060048201526024016104d2565b600080856001600160a01b031684866040516112e991906114ee565b60006040518083038185875af1925050503d8060008114611326576040519150601f19603f3d011682016040523d82523d6000602084013e61132b565b606091505b509150915061133b868383611345565b9695505050505050565b60608261135a57611355826113ba565b611288565b815115801561137157506001600160a01b0384163b155b156113b3576040517f9996b3150000000000000000000000000000000000000000000000000000000081526001600160a01b03851660048201526024016104d2565b5080611288565b8051156113ca5780518082602001fd5b6040517f1425ea4200000000000000000000000000000000000000000000000000000000815260040160405180910390fd5b60006020828403121561140e57600080fd5b81356001600160a01b038116811461128857600080fd5b60006020828403121561143757600080fd5b5035919050565b634e487b7160e01b600052601160045260246000fd5b8181038181111561087c5761087c61143e565b60008261148457634e487b7160e01b600052601260045260246000fd5b500490565b808202811582820484141761087c5761087c61143e565b8082018082111561087c5761087c61143e565b6000602082840312156114c557600080fd5b5051919050565b6000602082840312156114de57600080fd5b8151801515811461128857600080fd5b6000825160005b8181101561150f57602081860181015185830152016114f5565b50600092019182525091905056fea2646970667358221220880e0b641e0d1c06f5311f073096ead3b49d35d0e64930b39d2fa3cf670d509464736f6c63430008180033",
  "linkReferences": {},
  "deployedLinkReferences": {}
}